{
  "_format": "hh-sol-artifact-1",
  "contractName": "ProofOfDonationNFT",
  "sourceName": "contracts/ProofOfDonationNFT.sol",
  "abi": [
    {
      "inputs": [],
      "stateMutability": "nonpayable",
      "type": "constructor"
    },
    {
      "inputs": [
        {
          "internalType": "address",
          "name": "sender",
          "type": "address"
        },
        {
          "internalType": "uint256",
          "name": "tokenId",
          "type": "uint256"
        },
        {
          "internalType": "address",
          "name": "owner",
          "type": "address"
        }
      ],
      "name": "ERC721IncorrectOwner",
      "type": "error"
    },
    {
      "inputs": [
        {
          "internalType": "address",
          "name": "operator",
          "type": "address"
        },
        {
          "internalType": "uint256",
          "name": "tokenId",
          "type": "uint256"
        }
      ],
      "name": "ERC721InsufficientApproval",
      "type": "error"
    },
    {
      "inputs": [
        {
          "internalType": "address",
          "name": "approver",
          "type": "address"
        }
      ],
      "name": "ERC721InvalidApprover",
      "type": "error"
    },
    {
      "inputs": [
        {
          "internalType": "address",
          "name": "operator",
          "type": "address"
        }
      ],
      "name": "ERC721InvalidOperator",
      "type": "error"
    },
    {
      "inputs": [
        {
          "internalType": "address",
          "name": "owner",
          "type": "address"
        }
      ],
      "name": "ERC721InvalidOwner",
      "type": "error"
    },
    {
      "inputs": [
        {
          "internalType": "address",
          "name": "receiver",
          "type": "address"
        }
      ],
      "name": "ERC721InvalidReceiver",
      "type": "error"
    },
    {
      "inputs": [
        {
          "internalType": "address",
          "name": "sender",
          "type": "address"
        }
      ],
      "name": "ERC721InvalidSender",
      "type": "error"
    },
    {
      "inputs": [
        {
          "internalType": "uint256",
          "name": "tokenId",
          "type": "uint256"
        }
      ],
      "name": "ERC721NonexistentToken",
      "type": "error"
    },
    {
      "anonymous": false,
      "inputs": [
        {
          "indexed": true,
          "internalType": "address",
          "name": "owner",
          "type": "address"
        },
        {
          "indexed": true,
          "internalType": "address",
          "name": "approved",
          "type": "address"
        },
        {
          "indexed": true,
          "internalType": "uint256",
          "name": "tokenId",
          "type": "uint256"
        }
      ],
      "name": "Approval",
      "type": "event"
    },
    {
      "anonymous": false,
      "inputs": [
        {
          "indexed": true,
          "internalType": "address",
          "name": "owner",
          "type": "address"
        },
        {
          "indexed": true,
          "internalType": "address",
          "name": "operator",
          "type": "address"
        },
        {
          "indexed": false,
          "internalType": "bool",
          "name": "approved",
          "type": "bool"
        }
      ],
      "name": "ApprovalForAll",
      "type": "event"
    },
    {
      "anonymous": false,
      "inputs": [
        {
          "indexed": false,
          "internalType": "uint256",
          "name": "_fromTokenId",
          "type": "uint256"
        },
        {
          "indexed": false,
          "internalType": "uint256",
          "name": "_toTokenId",
          "type": "uint256"
        }
      ],
      "name": "BatchMetadataUpdate",
      "type": "event"
    },
    {
      "anonymous": false,
      "inputs": [
        {
          "indexed": false,
          "internalType": "uint256",
          "name": "_tokenId",
          "type": "uint256"
        }
      ],
      "name": "MetadataUpdate",
      "type": "event"
    },
    {
      "anonymous": false,
      "inputs": [
        {
          "indexed": true,
          "internalType": "address",
          "name": "from",
          "type": "address"
        },
        {
          "indexed": true,
          "internalType": "address",
          "name": "to",
          "type": "address"
        },
        {
          "indexed": true,
          "internalType": "uint256",
          "name": "tokenId",
          "type": "uint256"
        }
      ],
      "name": "Transfer",
      "type": "event"
    },
    {
      "inputs": [
        {
          "internalType": "address",
          "name": "to",
          "type": "address"
        },
        {
          "internalType": "uint256",
          "name": "tokenId",
          "type": "uint256"
        }
      ],
      "name": "approve",
      "outputs": [],
      "stateMutability": "nonpayable",
      "type": "function"
    },
    {
      "inputs": [
        {
          "internalType": "address",
          "name": "owner",
          "type": "address"
        }
      ],
      "name": "balanceOf",
      "outputs": [
        {
          "internalType": "uint256",
          "name": "",
          "type": "uint256"
        }
      ],
      "stateMutability": "view",
      "type": "function"
    },
    {
      "inputs": [
        {
          "internalType": "uint256",
          "name": "collectionId",
          "type": "uint256"
        },
        {
          "internalType": "string",
          "name": "collectionName",
          "type": "string"
        }
      ],
      "name": "createCollection",
      "outputs": [],
      "stateMutability": "nonpayable",
      "type": "function"
    },
    {
      "inputs": [
        {
          "internalType": "uint256",
          "name": "tokenId",
          "type": "uint256"
        }
      ],
      "name": "getApproved",
      "outputs": [
        {
          "internalType": "address",
          "name": "",
          "type": "address"
        }
      ],
      "stateMutability": "view",
      "type": "function"
    },
    {
      "inputs": [
        {
          "internalType": "uint256",
          "name": "collectionId",
          "type": "uint256"
        }
      ],
      "name": "getCollection",
      "outputs": [
        {
          "internalType": "string",
          "name": "collectionName",
          "type": "string"
        },
        {
          "internalType": "uint256[]",
          "name": "tokenIds",
          "type": "uint256[]"
        }
      ],
      "stateMutability": "view",
      "type": "function"
    },
    {
      "inputs": [
        {
          "internalType": "address",
          "name": "owner",
          "type": "address"
        },
        {
          "internalType": "address",
          "name": "operator",
          "type": "address"
        }
      ],
      "name": "isApprovedForAll",
      "outputs": [
        {
          "internalType": "bool",
          "name": "",
          "type": "bool"
        }
      ],
      "stateMutability": "view",
      "type": "function"
    },
    {
      "inputs": [
        {
          "internalType": "address",
          "name": "recipient",
          "type": "address"
        },
        {
          "internalType": "string",
          "name": "tokenURI",
          "type": "string"
        },
        {
          "internalType": "uint256",
          "name": "collectionId",
          "type": "uint256"
        }
      ],
      "name": "mintNFT",
      "outputs": [],
      "stateMutability": "nonpayable",
      "type": "function"
    },
    {
      "inputs": [],
      "name": "name",
      "outputs": [
        {
          "internalType": "string",
          "name": "",
          "type": "string"
        }
      ],
      "stateMutability": "view",
      "type": "function"
    },
    {
      "inputs": [],
      "name": "nextTokenId",
      "outputs": [
        {
          "internalType": "uint256",
          "name": "",
          "type": "uint256"
        }
      ],
      "stateMutability": "view",
      "type": "function"
    },
    {
      "inputs": [
        {
          "internalType": "uint256",
          "name": "tokenId",
          "type": "uint256"
        }
      ],
      "name": "ownerOf",
      "outputs": [
        {
          "internalType": "address",
          "name": "",
          "type": "address"
        }
      ],
      "stateMutability": "view",
      "type": "function"
    },
    {
      "inputs": [
        {
          "internalType": "address",
          "name": "from",
          "type": "address"
        },
        {
          "internalType": "address",
          "name": "to",
          "type": "address"
        },
        {
          "internalType": "uint256",
          "name": "tokenId",
          "type": "uint256"
        }
      ],
      "name": "safeTransferFrom",
      "outputs": [],
      "stateMutability": "nonpayable",
      "type": "function"
    },
    {
      "inputs": [
        {
          "internalType": "address",
          "name": "from",
          "type": "address"
        },
        {
          "internalType": "address",
          "name": "to",
          "type": "address"
        },
        {
          "internalType": "uint256",
          "name": "tokenId",
          "type": "uint256"
        },
        {
          "internalType": "bytes",
          "name": "data",
          "type": "bytes"
        }
      ],
      "name": "safeTransferFrom",
      "outputs": [],
      "stateMutability": "nonpayable",
      "type": "function"
    },
    {
      "inputs": [
        {
          "internalType": "address",
          "name": "operator",
          "type": "address"
        },
        {
          "internalType": "bool",
          "name": "approved",
          "type": "bool"
        }
      ],
      "name": "setApprovalForAll",
      "outputs": [],
      "stateMutability": "nonpayable",
      "type": "function"
    },
    {
      "inputs": [
        {
          "internalType": "bytes4",
          "name": "interfaceId",
          "type": "bytes4"
        }
      ],
      "name": "supportsInterface",
      "outputs": [
        {
          "internalType": "bool",
          "name": "",
          "type": "bool"
        }
      ],
      "stateMutability": "view",
      "type": "function"
    },
    {
      "inputs": [],
      "name": "symbol",
      "outputs": [
        {
          "internalType": "string",
          "name": "",
          "type": "string"
        }
      ],
      "stateMutability": "view",
      "type": "function"
    },
    {
      "inputs": [
        {
          "internalType": "uint256",
          "name": "tokenId",
          "type": "uint256"
        }
      ],
      "name": "tokenURI",
      "outputs": [
        {
          "internalType": "string",
          "name": "",
          "type": "string"
        }
      ],
      "stateMutability": "view",
      "type": "function"
    },
    {
      "inputs": [
        {
          "internalType": "address",
          "name": "from",
          "type": "address"
        },
        {
          "internalType": "address",
          "name": "to",
          "type": "address"
        },
        {
          "internalType": "uint256",
          "name": "tokenId",
          "type": "uint256"
        }
      ],
      "name": "transferFrom",
      "outputs": [],
      "stateMutability": "nonpayable",
      "type": "function"
    }
  ],
  "bytecode": "0x60806040523480156200001157600080fd5b5060405180604001604052806012815260200171141c9bdbd993d9911bdb985d1a5bdb93919560721b815250604051806040016040528060038152602001621413d160ea1b81525081600090816200006a91906200012c565b5060016200007982826200012c565b5050600160075550620001f8565b634e487b7160e01b600052604160045260246000fd5b600181811c90821680620000b257607f821691505b602082108103620000d357634e487b7160e01b600052602260045260246000fd5b50919050565b601f8211156200012757600081815260208120601f850160051c81016020861015620001025750805b601f850160051c820191505b8181101562000123578281556001016200010e565b5050505b505050565b81516001600160401b0381111562000148576200014862000087565b62000160816200015984546200009d565b84620000d9565b602080601f8311600181146200019857600084156200017f5750858301515b600019600386901b1c1916600185901b17855562000123565b600085815260208120601f198616915b82811015620001c957888601518255948401946001909101908401620001a8565b5085821015620001e85787850151600019600388901b60f8161c191681555b5050505050600190811b01905550565b6115ac80620002086000396000f3fe608060405234801561001057600080fd5b506004361061010b5760003560e01c80635a1f3c28116100a257806395d89b411161007157806395d89b4114610236578063a22cb4651461023e578063b88d4fde14610251578063c87b56dd14610264578063e985e9c51461027757600080fd5b80635a1f3c28146101d95780636352211e146101fa57806370a082311461020d57806375794a3c1461022e57600080fd5b8063095ea7b3116100de578063095ea7b31461018d57806323b872dd146101a057806336d0e305146101b357806342842e0e146101c657600080fd5b806301ffc9a71461011057806306fdde0314610138578063081812fc1461014d57806308598df014610178575b600080fd5b61012361011e366004610fc4565b61028a565b60405190151581526020015b60405180910390f35b6101406102b5565b60405161012f9190611031565b61016061015b366004611044565b610347565b6040516001600160a01b03909116815260200161012f565b61018b610186366004611125565b610370565b005b61018b61019b36600461117c565b6103e5565b61018b6101ae3660046111a6565b6103f4565b61018b6101c13660046111e2565b610484565b61018b6101d43660046111a6565b610509565b6101ec6101e7366004611044565b610524565b60405161012f929190611229565b610160610208366004611044565b61062c565b61022061021b366004611280565b610637565b60405190815260200161012f565b600754610220565b61014061067f565b61018b61024c36600461129b565b61068e565b61018b61025f3660046112d7565b610699565b610140610272366004611044565b6106b1565b610123610285366004611353565b6107c2565b60006001600160e01b03198216632483248360e11b14806102af57506102af826107f0565b92915050565b6060600080546102c490611386565b80601f01602080910402602001604051908101604052809291908181526020018280546102f090611386565b801561033d5780601f106103125761010080835404028352916020019161033d565b820191906000526020600020905b81548152906001019060200180831161032057829003601f168201915b5050505050905090565b600061035282610840565b506000828152600460205260409020546001600160a01b03166102af565b60075461037d8482610879565b61038781846108de565b600082815260086020526040812080546103a090611386565b905011156103ca576000828152600960209081526040822080546001810182559083529120018190555b600780549060006103da836113c0565b919050555050505050565b6103f082823361092e565b5050565b6001600160a01b03821661042357604051633250574960e11b8152600060048201526024015b60405180910390fd5b600061043083833361093b565b9050836001600160a01b0316816001600160a01b03161461047e576040516364283d7b60e01b81526001600160a01b038086166004830152602482018490528216604482015260640161041a565b50505050565b6000828152600860205260409020805461049d90611386565b1590506104ec5760405162461bcd60e51b815260206004820152601c60248201527f436f6c6c656374696f6e20494420616c72656164792065786973747300000000604482015260640161041a565b6000828152600860205260409020610504828261142d565b505050565b61050483838360405180602001604052806000815250610699565b60008181526008602090815260408083206009909252909120815460609283929091829061055190611386565b80601f016020809104026020016040519081016040528092919081815260200182805461057d90611386565b80156105ca5780601f1061059f576101008083540402835291602001916105ca565b820191906000526020600020905b8154815290600101906020018083116105ad57829003601f168201915b505050505091508080548060200260200160405190810160405280929190818152602001828054801561061c57602002820191906000526020600020905b815481526020019060010190808311610608575b5050505050905091509150915091565b60006102af82610840565b60006001600160a01b038216610663576040516322718ad960e21b81526000600482015260240161041a565b506001600160a01b031660009081526003602052604090205490565b6060600180546102c490611386565b6103f0338383610a34565b6106a48484846103f4565b61047e3385858585610ad3565b60606106bc82610840565b50600082815260066020526040812080546106d690611386565b80601f016020809104026020016040519081016040528092919081815260200182805461070290611386565b801561074f5780601f106107245761010080835404028352916020019161074f565b820191906000526020600020905b81548152906001019060200180831161073257829003601f168201915b50505050509050600061076d60408051602081019091526000815290565b9050805160000361077f575092915050565b8151156107b15780826040516020016107999291906114ed565b60405160208183030381529060405292505050919050565b6107ba84610bfe565b949350505050565b6001600160a01b03918216600090815260056020908152604080832093909416825291909152205460ff1690565b60006001600160e01b031982166380ac58cd60e01b148061082157506001600160e01b03198216635b5e139f60e01b145b806102af57506301ffc9a760e01b6001600160e01b03198316146102af565b6000818152600260205260408120546001600160a01b0316806102af57604051637e27328960e01b81526004810184905260240161041a565b6001600160a01b0382166108a357604051633250574960e11b81526000600482015260240161041a565b60006108b18383600061093b565b90506001600160a01b03811615610504576040516339e3563760e11b81526000600482015260240161041a565b60008281526006602052604090206108f6828261142d565b506040518281527ff8e1a15aba9398e019f0b49df1a4fde98ee17ae345cb5f6b5e2c27f5033e8ce79060200160405180910390a15050565b6105048383836001610c73565b6000828152600260205260408120546001600160a01b039081169083161561096857610968818486610d79565b6001600160a01b038116156109a657610985600085600080610c73565b6001600160a01b038116600090815260036020526040902080546000190190555b6001600160a01b038516156109d5576001600160a01b0385166000908152600360205260409020805460010190555b60008481526002602052604080822080546001600160a01b0319166001600160a01b0389811691821790925591518793918516917fddf252ad1be2c89b69c2b068fc378daa952ba7f163c4a11628f55a4df523b3ef91a4949350505050565b6001600160a01b038216610a6657604051630b61174360e31b81526001600160a01b038316600482015260240161041a565b6001600160a01b03838116600081815260056020908152604080832094871680845294825291829020805460ff191686151590811790915591519182527f17307eab39ab6107e8899845ad3d59bd9653f200f220920489ca2b5937696c31910160405180910390a3505050565b6001600160a01b0383163b15610bf757604051630a85bd0160e11b81526001600160a01b0384169063150b7a0290610b1590889088908790879060040161151c565b6020604051808303816000875af1925050508015610b50575060408051601f3d908101601f19168201909252610b4d91810190611559565b60015b610bb9573d808015610b7e576040519150601f19603f3d011682016040523d82523d6000602084013e610b83565b606091505b508051600003610bb157604051633250574960e11b81526001600160a01b038516600482015260240161041a565b805181602001fd5b6001600160e01b03198116630a85bd0160e11b14610bf557604051633250574960e11b81526001600160a01b038516600482015260240161041a565b505b5050505050565b6060610c0982610840565b506000610c2160408051602081019091526000815290565b90506000815111610c415760405180602001604052806000815250610c6c565b80610c4b84610ddd565b604051602001610c5c9291906114ed565b6040516020818303038152906040525b9392505050565b8080610c8757506001600160a01b03821615155b15610d49576000610c9784610840565b90506001600160a01b03831615801590610cc35750826001600160a01b0316816001600160a01b031614155b8015610cd65750610cd481846107c2565b155b15610cff5760405163a9fbf51f60e01b81526001600160a01b038416600482015260240161041a565b8115610d475783856001600160a01b0316826001600160a01b03167f8c5be1e5ebec7d5bd14f71427d1e84f3dd0314c0f7b2291e5b200ac8c7c3b92560405160405180910390a45b505b5050600090815260046020526040902080546001600160a01b0319166001600160a01b0392909216919091179055565b610d84838383610e70565b610504576001600160a01b038316610db257604051637e27328960e01b81526004810182905260240161041a565b60405163177e802f60e01b81526001600160a01b03831660048201526024810182905260440161041a565b60606000610dea83610ed3565b600101905060008167ffffffffffffffff811115610e0a57610e0a611079565b6040519080825280601f01601f191660200182016040528015610e34576020820181803683370190505b5090508181016020015b600019016f181899199a1a9b1b9c1cb0b131b232b360811b600a86061a8153600a8504945084610e3e57509392505050565b60006001600160a01b038316158015906107ba5750826001600160a01b0316846001600160a01b03161480610eaa5750610eaa84846107c2565b806107ba5750506000908152600460205260409020546001600160a01b03908116911614919050565b60008072184f03e93ff9f4daa797ed6e38ed64bf6a1f0160401b8310610f125772184f03e93ff9f4daa797ed6e38ed64bf6a1f0160401b830492506040015b6d04ee2d6d415b85acef81000000008310610f3e576d04ee2d6d415b85acef8100000000830492506020015b662386f26fc100008310610f5c57662386f26fc10000830492506010015b6305f5e1008310610f74576305f5e100830492506008015b6127108310610f8857612710830492506004015b60648310610f9a576064830492506002015b600a83106102af5760010192915050565b6001600160e01b031981168114610fc157600080fd5b50565b600060208284031215610fd657600080fd5b8135610c6c81610fab565b60005b83811015610ffc578181015183820152602001610fe4565b50506000910152565b6000815180845261101d816020860160208601610fe1565b601f01601f19169290920160200192915050565b602081526000610c6c6020830184611005565b60006020828403121561105657600080fd5b5035919050565b80356001600160a01b038116811461107457600080fd5b919050565b634e487b7160e01b600052604160045260246000fd5b600067ffffffffffffffff808411156110aa576110aa611079565b604051601f8501601f19908116603f011681019082821181831017156110d2576110d2611079565b816040528093508581528686860111156110eb57600080fd5b858560208301376000602087830101525050509392505050565b600082601f83011261111657600080fd5b610c6c8383356020850161108f565b60008060006060848603121561113a57600080fd5b6111438461105d565b9250602084013567ffffffffffffffff81111561115f57600080fd5b61116b86828701611105565b925050604084013590509250925092565b6000806040838503121561118f57600080fd5b6111988361105d565b946020939093013593505050565b6000806000606084860312156111bb57600080fd5b6111c48461105d565b92506111d26020850161105d565b9150604084013590509250925092565b600080604083850312156111f557600080fd5b82359150602083013567ffffffffffffffff81111561121357600080fd5b61121f85828601611105565b9150509250929050565b60408152600061123c6040830185611005565b82810360208481019190915284518083528582019282019060005b8181101561127357845183529383019391830191600101611257565b5090979650505050505050565b60006020828403121561129257600080fd5b610c6c8261105d565b600080604083850312156112ae57600080fd5b6112b78361105d565b9150602083013580151581146112cc57600080fd5b809150509250929050565b600080600080608085870312156112ed57600080fd5b6112f68561105d565b93506113046020860161105d565b925060408501359150606085013567ffffffffffffffff81111561132757600080fd5b8501601f8101871361133857600080fd5b6113478782356020840161108f565b91505092959194509250565b6000806040838503121561136657600080fd5b61136f8361105d565b915061137d6020840161105d565b90509250929050565b600181811c9082168061139a57607f821691505b6020821081036113ba57634e487b7160e01b600052602260045260246000fd5b50919050565b6000600182016113e057634e487b7160e01b600052601160045260246000fd5b5060010190565b601f82111561050457600081815260208120601f850160051c8101602086101561140e5750805b601f850160051c820191505b81811015610bf55782815560010161141a565b815167ffffffffffffffff81111561144757611447611079565b61145b816114558454611386565b846113e7565b602080601f83116001811461149057600084156114785750858301515b600019600386901b1c1916600185901b178555610bf5565b600085815260208120601f198616915b828110156114bf578886015182559484019460019091019084016114a0565b50858210156114dd5787850151600019600388901b60f8161c191681555b5050505050600190811b01905550565b600083516114ff818460208801610fe1565b835190830190611513818360208801610fe1565b01949350505050565b6001600160a01b038581168252841660208201526040810183905260806060820181905260009061154f90830184611005565b9695505050505050565b60006020828403121561156b57600080fd5b8151610c6c81610fab56fea264697066735822122072c30e4fc591df0bbac8b46dfeaf7e810c29fd1d4dfd7d23e0efbe3805b38cc464736f6c63430008140033",
  "linkReferences": {},
  "deployedLinkReferences": {}
}